:100000000C9462000C947F000C947F000C947F0091
:100010000C947F000C947F000C947F000C948A0356
:100020000C947F000C947F000C947F000C947F0054
:100030000C947F000C947F000C947F000C947F0044
:100040000C9440030C947F000C947F000C947F0070
:100050000C947F000C947F000C947F000C947F0024
:100060000C947F000C947F00000000002400270007
:100070002A0000000008000201000003040700003D
:1000800000000000000000000000230026002900FE
:10009000010204081020408001020408102001021F
:1000A0000408102000000000250028002B00040494
:1000B0000404040404040202020202020303030310
:1000C0000303020011241FBECFEFD8E0DEBFCDBF77
:1000D00011E0A0E0B1E0ECE5FFE002C005900D9278
:1000E000A230B107D9F721E0A2E0B1E001C01D9232
:1000F000AF31B207E1F70E9451040C94AC070C94A5
:10010000000090E0FC01EE58FF4F2491FC01E05705
:10011000FF4F3491FC01E255FF4FE491EE23C9F00B
:10012000222339F0233001F1A8F4213019F12230D3
:1001300029F1F0E0EE0FFF1FEC55FF4FA591B491B0
:100140008FB7F894EC91611126C030953E233C9313
:100150008FBF08952730A9F02830C9F0243049F71F
:10016000809180008F7D03C0809180008F77809385
:100170008000DFCF84B58F7784BDDBCF84B58F7DE2
:10018000FBCF8091B0008F778093B000D2CF809169
:10019000B0008F7DF9CF3E2BDACFCF93DF9390E085
:1001A000FC01E057FF4F249182559F4FFC01849141
:1001B0008823D1F090E0880F991FFC01E859FF4F88
:1001C000A591B491FC01EC55FF4FC591D4916111FB
:1001D0000EC09FB7F8948C91E22FE0958E238C93FC
:1001E0002881E223E8839FBFDF91CF9108958FB7E5
:1001F000F894EC91E22BEC938FBFF6CF8F929F9205
:10020000AF92BF92CF92DF92EF92FF92CF936B01AA
:1002100090910101891769F09F3F09F46FC0CF9158
:10022000FF90EF90DF90CF90BF90AF909F908F9016
:100230000895E2ECF0E0C491C7FDF1CF61E00E94C7
:10024000CD00CC2319F0C23009F02CC1F12CE12CE7
:1002500060E072E18AE790E0A70196010E946B07D7
:1002600049015A01DA01C9010197A109B1098F3F7A
:100270009105A105B10509F00CF4F8C060E472E441
:100280008FE090E0A70196010E946B072150310991
:1002900041095109C23009F0AAC082E02F3F31055F
:1002A0004105510509F00CF492C160E970ED83E05D
:1002B00090E0A70196010E946B0721503109410986
:1002C000510983E02F3F31054105510509F00CF438
:1002D0007EC168E478EE81E090E0A70196010E947B
:1002E0006B0721503109410951092F3F3105410563
:1002F000510511F00CF099C084E069C180930101AF
:10030000E2ECF0E0C491CF3F09F489CFC13039F17C
:1003100048F0C23009F445C0C7FD81CF61E00E94BA
:10032000CD0091CF14BC15BC94B5926094BD95B529
:10033000916095BD282F30E0F901E255FF4FE4911F
:10034000F0E0EE0FFF1FEC55FF4F45915491F9017E
:10035000E057FF4FE491E0931201C0E06FCF10929D
:1003600080001092810090918100986090938100AC
:1003700090918100916090938100282F30E0F901E5
:10038000E255FF4FE491F0E0EE0FFF1FEC55FF4FF9
:1003900045915491F901E057FF4FE491E093110129
:1003A0004DCF1092B0001092B1009091B0009260C9
:1003B0009093B0009091B10091609093B100282F7C
:1003C00030E0F901E255FF4FE491F0E0EE0FFF1F3E
:1003D000EC55FF4F459154915093100140930F01FC
:1003E000F901E057FF4FE491E0930E0127CF2F3F33
:1003F00031054105510509F00CF452C068E478EE6E
:1004000081E090E0A70196010E946B07215031091D
:1004100041095109CC2309F4AFC02F3F31054105F3
:10042000510511F00CF0B0C067CF64E274EF80E0CA
:1004300090E0A70196010E946B0721503109410904
:10044000510985E02F3F31054105510509F008F4B8
:10045000BEC062E17AE780E090E0A70196010E94C9
:100460006B0721503109410951099CC09C0181E071
:10047000C111ADC095B5987F892B85BD27BD8FEF84
:100480009FEFDC0180931B0190931C01A0931D0141
:10049000B0931E0180916E00826080936E00BFCE8B
:1004A00082E0E6CFF12CE12C60E072E18AE790E097
:1004B000A70196010E946B0721503109410951099A
:1004C00091E02115310581E0480751056CF068E4A1
:1004D00078EE81E090E0A70196010E946B07215021
:1004E00031094109510993E0C13009F076C080918A
:1004F0008100887F892B809381003093890020932D
:1005000088008FEF9FEFDC01809317019093180113
:10051000A0931901B0931A0180916F0082608093BB
:100520006F007DCE2093B3008FEF9FEFDC018093AF
:10053000130190931401A0931501B09316018091BB
:1005400070008260809370006ACE84E02F3F310596
:100550004105510509F008F48DCF9AE0B594A794B0
:10056000979487949A95D1F7A50194012150310968
:100570004109510985E07ECF83E02F3F31054105D8
:10058000510509F00CF476CF62E17AE780E090E063
:10059000A70196010E946B072150310941095109B9
:1005A000CC2399F286E02F3F31054105510579F0C2
:1005B00070F08AE0B594A794979487948A95D1F7C0
:1005C000A5019401215031094109510987E0909119
:1005D000B100987F892B8093B100C13009F48DCF91
:1005E000C23009F49FCFC1111ACE48CF3FB7F8945B
:1005F00080910A0190910B01A0910C01B0910D0125
:1006000026B5A89B05C02F3F19F00196A11DB11D6D
:100610003FBFBA2FA92F982F8827BC01CD01620FA9
:10062000711D811D911D42E0660F771F881F991F64
:100630004A95D1F708950F931F93482FEEE9F0E004
:100640006491ECEBF0E0E4918111462FF0E0EE0FC5
:10065000FF1FEA57FF4F8591949100E412E42FE0C9
:1006600030E00E940C04611571058105910529F0A7
:100670006F5F7F4F8F4F9F4F9F701F910F91089516
:100680001F920F920FB60F9211242F933F938F93C7
:100690009F93AF93BF938091060190910701A09122
:1006A0000801B09109013091050123E0230F2D3796
:1006B00058F50196A11DB11D2093050180930601F7
:1006C00090930701A0930801B093090180910A015A
:1006D00090910B01A0910C01B0910D010196A11D0B
:1006E000B11D80930A0190930B01A0930C01B0936C
:1006F0000D01BF91AF919F918F913F912F910F90DD
:100700000FBE0F901F90189526E8230F0296A11D8B
:10071000B11DD2CF1F920F920FB60F9211242F93BB
:100720003F934F935F936F937F938F939F93AF9379
:10073000BF93EF93FF938091130190911401A091C7
:100740001501B0911601892B8A2B8B2BD1F1909139
:100750000E01E0910F01F0911001808189278083C3
:100760008091130190911401A0911501B09116018F
:10077000181619061A061B069CF480911301909115
:100780001401A0911501B09116010197A109B109B9
:100790008093130190931401A0931501B093160157
:1007A000FF91EF91BF91AF919F918F917F916F9149
:1007B0005F914F913F912F910F900FBE0F901F901F
:1007C000189580910101E2ECF0E0E4919FEF9093A5
:1007D0000101E13051F030F0E23069F060E00E9458
:1007E0008100DECF10926E00F9CF90916F009D7F57
:1007F00090936F00F3CF909170009D7F9093700065
:1008000091E09093B0009091B100987F94609093A4
:10081000B1001092B300E2CFCF92DF92EF92FF923D
:100820000F931F93E82FF92F05C0015011092109DB
:10083000310961F1908196239417B9F305C00150F5
:1008400011092109310911F1908196239413F7CFF1
:10085000C12CD12CE12CF12C0AC08FEFC81AD80A78
:10086000E80AF80A0C151D052E053F0579F0808170
:100870008623841791F36C2D7D2D8E2D9F2D1F9136
:100880000F91FF90EF90DF90CF90089560E070E0BF
:1008900080E090E01F910F91FF90EF90DF90CF905C
:1008A0000895789484B5826084BD84B5816084BDE8
:1008B00085B5826085BD85B5816085BD80916E00FE
:1008C000816080936E00109281008091810082602F
:1008D000809381008091810081608093810080916C
:1008E00080008160809380008091B100846080935B
:1008F000B1008091B00081608093B00080917A0057
:10090000846080937A0080917A00826080937A007C
:1009100080917A00816080937A0080917A0080686B
:1009200080937A001092C10060E08EE00E94CD00BA
:1009300061E083E00E94CD0061E083E00E948100DD
:1009400061E085E00E94CD0068EE73E085E00E94E2
:10095000FE000E94F6024B015C0158EEC52E53E0EA
:10096000D52EE12CF12C0E94F602681979098A092A
:100970009B09683E734081059105A8F321E0C21AE6
:10098000D108E108F10888EE880E83E0981EA11CCA
:10099000B11CC114D104E104F10429F727E0222E8F
:1009A000312C36E0432E512C45E0642E712CC4E0EE
:1009B000D0E003E010E0CC24C394D12C90E0E92EE9
:1009C00090E0F92E81E00E941B034B015C0180E066
:1009D0000E941B03680D791D8A1D9B1D0E947206D3
:1009E0002DEB37E346E855E30E94FE069B01AC0180
:1009F00060E070E080E89FE30E94C8050E943A062C
:100A0000655F7140810991096B3D754081059105D4
:100A100008F041C061E083E00E94810081E08093A2
:100A2000000180910301909104010097D9F5809114
:100A30000001811104C0D0920401C0920301809191
:100A4000030190910401089741F480910001811104
:100A500004C010920401109203018091030190914F
:100A60000401209102012817190671F021E0009776
:100A700009F420E020930201009709F06AC06CE4B9
:100A800074E085E00E94FE00E114F10409F49ACFBD
:100A90000E94000090CF60E083E00E9481001092ED
:100AA0000001BFCF8130910559F480910001882366
:100AB00031F282E090E09093040180930301BFCF74
:100AC0008230910549F4809100018111B8CF1093D3
:100AD000040100930301B3CF8330910551F4809159
:100AE0000001882309F4ABCFD0930401C093030124
:100AF000A6CF8430910549F48091000181119FCFE8
:100B000070920401609203019ACF8530910551F4EF
:100B100080910001882309F492CF50920401409201
:100B200003018DCF8630910549F480910001811138
:100B300086CF309204012092030181CF079709F0FC
:100B40007ECF80910001882309F479CF88E090E07E
:100B5000B2CF8130910519F462E67AE792CF823004
:100B6000910519F46CEA70E28CCF83309105A1F302
:100B700084309105B9F38530910571F38630910584
:100B800089F38730910541F3089709F07DCF77CF3E
:100B90000E94DC050C94C4060E94BD0658F00E9419
:100BA000B60640F029F45F3F29F00C94AD065111D0
:100BB0000C94F8060C94B3060E94D50668F39923AA
:100BC000B1F3552391F3951B550BBB27AA27621749
:100BD0007307840738F09F5F5F4F220F331F441F56
:100BE000AA1FA9F335D00E2E3AF0E0E832D091508A
:100BF0005040E695001CCAF72BD0FE2F29D0660F77
:100C0000771F881FBB1F261737074807AB07B0E8B9
:100C100009F0BB0B802DBF01FF2793585F4F3AF0BF
:100C20009E3F510578F00C94AD060C94F8065F3F9A
:100C3000E4F3983ED4F3869577956795B795F79545
:100C40009F5FC9F7880F911D9695879597F908952D
:100C5000E1E0660F771F881FBB1F621773078407C9
:100C6000BA0720F0621B730B840BBA0BEE1F88F7D8
:100C7000E09508950E9441066894B1110C94F8061D
:100C800008950E94DD0688F09F5798F0B92F9927A4
:100C9000B751B0F0E1F0660F771F881F991F1AF067
:100CA000BA95C9F714C0B13091F00E94F706B1E0CF
:100CB00008950C94F706672F782F8827B85F39F0CE
:100CC000B93FCCF3869577956795B395D9F73EF400
:100CD00090958095709561957F4F8F4F9F4F0895A8
:100CE000E89409C097FB3EF49095809570956195C6
:100CF0007F4F8F4F9F4F9923A9F0F92F96E9BB277C
:100D00009395F695879577956795B795F111F8CFF7
:100D1000FAF4BB0F11F460FF1BC06F5F7F4F8F4F62
:100D20009F4F16C0882311F096E911C0772321F058
:100D30009EE8872F762F05C0662371F096E8862FF0
:100D400070E060E02AF09A95660F771F881FDAF747
:100D5000880F9695879597F9089597F99F6780E88A
:100D600070E060E008959FEF80EC089500240A94FD
:100D70001616170618060906089500240A94121676
:100D80001306140605060895092E0394000C11F4A9
:100D9000882352F0BB0F40F4BF2B11F460FF04C056
:100DA0006F5F7F4F8F4F9F4F089557FD9058440FAF
:100DB000551F59F05F3F71F04795880F97FB991FBA
:100DC00061F09F3F79F08795089512161306140677
:100DD000551FF2CF4695F1DF08C016161706180604
:100DE000991FF1CF86957105610508940895E894DF
:100DF000BB2766277727CB0197F908950E94110733
:100E00000C94C4060E94B60638F00E94BD0620F07D
:100E1000952311F00C94AD060C94B30611240C9498
:100E2000F8060E94D50670F3959FC1F3950F50E028
:100E3000551F629FF001729FBB27F00DB11D639F8C
:100E4000AA27F00DB11DAA1F649F6627B00DA11D32
:100E5000661F829F2227B00DA11D621F739FB00DD8
:100E6000A11D621F839FA00D611D221F749F332748
:100E7000A00D611D231F849F600D211D822F762FE1
:100E80006A2F11249F5750409AF0F1F088234AF0BE
:100E9000EE0FFF1FBB1F661F771F881F915050402A
:100EA000A9F79E3F510580F00C94AD060C94F8060E
:100EB0005F3FE4F3983ED4F3869577956795B795B1
:100EC000F795E7959F5FC1F7FE2B880F911D9695CB
:100ED000879597F90895052E97FB1EF400940E94BC
:100EE000820757FD07D00E948A0707FC03D04EF403
:100EF0000C94820750954095309521953F4F4F4F68
:100F00005F4F089590958095709561957F4F8F4FB5
:100F10009F4F0895A1E21A2EAA1BBB1BFD010DC015
:100F2000AA1FBB1FEE1FFF1FA217B307E407F50799
:100F300020F0A21BB30BE40BF50B661F771F881F75
:100F4000991F1A9469F760957095809590959B010B
:0C0F5000AC01BD01CF010895F894FFCF63
:020F5C0001FF93
:00000001FF
